:020000040800F2
:10000000A805002005010008170E0008DD0B0008F8
:10001000130E0008AF0900083B290008000000008B
:10002000000000000000000000000000751800083B
:10003000B30900080000000099160008111A000812
:100040001F0100081F0100081F0100081F01000810
:100050001F0100081F0100081F0100081F01000800
:100060001F0100081F0100081F0100081F010008F0
:100070001F0100081F0100081F0100081F010008E0
:100080001F0100081F0100081F0100081F010008D0
:100090001F0100081F0100081F0100081F010008C0
:1000A0001F0100081F0100081F0100081F010008B0
:1000B0001F0100081F010008791F00081F01000828
:1000C0001F0100081F0100081F0100081F01000890
:1000D0001F010008C12600081F0100081927000899
:1000E0001F0100081F0100081F010008DFF810D0E1
:1000F00000F0FAFB00480047652F0008AFF30080CE
:10010000A80500200648804706480047FEE7FEE7AE
:10011000FEE7FEE7FEE7FEE7FEE7FEE7FEE7FEE7B7
:10012000151A0008ED00000810B5002200E0521C6E
:10013000835C8C5CA34201D1002BF8D1D8B2E1B230
:10014000401A10BD034611F8012B00F8012B002ABC
:10015000F9D118467047F0B480EA0102D40F42008A
:10016000B2EB410F02D20246084611464A0042D085
:10017000C30DDDB2C1F3C752AD1A202D35DAC1F37C
:10018000160141F4000204B15242C5F1200602FA00
:1001900006F12A411044B3EBD05F23D0C4B1012D46
:1001A000A0EBC35009DCF0BC4FF0004202EAC3529E
:1001B000DBB200F5000000F0F5BA400000F18070FD
:1001C00000EBC350A0F1807040EAD170490009E013
:1001D000490841EAC071A0EBC35000F50000400897
:1001E00000EBC350F0BC00F0D4BA6142012202EB34
:1001F0004101001BF6E7F0BC704781F00041AAE71F
:1002000080F00040A7E780EA010210B502F0004349
:10021000400022D04A001FD0010E01EB1261C0F352
:100220005600C2F3560240F4000042F40002A0FB64
:10023000022000047F39140400D0401C50EA124010
:1002400001D44000491EC2B20C0604EBD010401C81
:100250004008802A02D003E0002010BD20F00100F9
:10026000002900DA0020184310BD30B480EA0102F2
:1002700002F0004530F0004221F0004013D090B170
:10028000C30DD40DC2F31601C0F31600E41A41F4F5
:10029000000140F400027D34914201D3641C00E06F
:1002A0004900002C02DA30BC002070474FF40000F7
:1002B0000023914201D3891A034340084FEA4101C8
:1002C000F7D151B1914202D14FF0004105E002D285
:1002D0004FF0010101E06FF0010103EBC45028442D
:1002E00030BC00F056BA2DE9FE4F804681EA03008B
:1002F000C00F0C46009021F0004123F00045B8EB00
:100300000200A94105D24046214690461C460B46B4
:10031000024623F00040104347D0270DC7F30A00E0
:10032000C3F30A510290401A019040286BDAC3F3DC
:10033000130040F4801B0098924620B10023D2EBBA
:10034000030A63EB0B0B01985946C0F1400250467B
:1003500000F0EEF906460D4650465946019A00F067
:1003600006FA10EB08006141002487EA115284EA82
:10037000E7731A4340D0009A62B3019A012A4FEA08
:10038000075215DC001B61EB02014FF0004202EA4C
:100390000752CDE90042001C41F5801132462B4640
:1003A00000F03DFA03B0BDE8F08F40462146F9E782
:1003B000001B61EB0201001C41F5801300185B413A
:1003C0002018A2F5001747EB030140EAD570B619D3
:1003D0006D4111E06D084FEA360645EAC0754FEAF7
:1003E0000752001B61EB0201001C41F58011490816
:1003F0004FEA30000019514132462B4603B0BDE8A8
:10040000F04F00F0FDB90098012240000023D0EB2E
:10041000020263EBE073009821464FEAE074B8EB08
:10042000000061EB0401E9E783F000435BE781F042
:10043000004158E72DE9FE4F81EA030404F000442F
:1004400021F0004100944FF0000B23F0004350EAEC
:1004500001045ED052EA03045BD0C3F30A54C1F333
:100460000A552C44A4F2F3340194A0FB0254C1F3C6
:10047000130141F48011C3F3130343F4801301FB10
:10048000024400FB034E840A970A44EA815447EA77
:100490008357A4FB076802958D0A05FB07854FEA81
:1004A000932C04FB0C542705029D4FEA065847EA9B
:1004B0001637B5EB08056EEB070C870E920E47EA70
:1004C000811742EA8312A7FB0201B6EB0B0164EB32
:1004D00000042B0D43EA0C335E1844EB1C50DA4643
:1004E0005146E7FB0201C5F313044FEA0B3343EA1D
:1004F00014534FEA0432019C43EA0603A4F10C04AE
:100500000294009CCDE900B400F089F903B0BDE885
:10051000F08F00200146F9E72DE9F04D81EA030450
:1005200004F0004B21F0004514464FF0000A23F080
:10053000004150EA050220D054EA01021DD0C5F363
:100540000A570246C5F31303C1F31300C1F30A5659
:1005500040F4801543F48013A7EB0608101BD64621
:1005600008F2FD3873EB050002D308F1010801E041
:1005700092185B41B8F1000F03DA00200146BDE894
:10058000F08D00204FF48011064684460EE0171BC4
:1005900073EB050705D3121B63EB050306434CEA17
:1005A000010C49084FEA300092185B4150EA0107FC
:1005B000EDD152EA030012D082EA040083EA050179
:1005C000084305D0101BAB4106D20122002306E0F0
:1005D00000224FF0004302E06FF0010253101AEBCB
:1005E00006004CEB085110EB0A0041EB0B01BDE893
:1005F000F04D00F005B9C10F80EAE0700844CA0769
:100600009623002100F0CEB80EB5C10F80EAE0704D
:100610000844CA07002140F233438DE80E000A4621
:100620000B4600F0FCF803B000BD0EB540F23341BC
:1006300002910021CDE900110A460B4600F0EFF8C7
:1006400003B000BD00F0004220F00040C10DC0F337
:10065000160040F400007F2901DA00207047962937
:1006600003DCC1F19601C84001E096398840002AB8
:10067000F4D04042704720F00040C10DC0F3160096
:1006800040F400007F2901DA00207047962903DC3E
:10069000C1F19601C8407047963988407047C1F350
:1006A0000A5210B5C1F3130140F2FF3341F4801137
:1006B0009A4201DA002010BD40F233439A42A2F27E
:1006C000334203DC524200F042F810BD904010BDAE
:1006D00030B5041E71F1000404DB4FF000444042C9
:1006E00064EB0101141E73F1000405DB1C464FF09E
:1006F0000043524263EB04038B4208BF824230BD89
:1007000030B5041E71F1000404DB4FF00044404298
:1007100064EB0101141E73F1000405DB1C464FF06D
:100720000043524263EB0403994208BF904230BD3C
:10073000202A04DB203A00FA02F1002070479140A1
:10074000C2F1200320FA03F3194390407047202A96
:1007500004DB203A21FA02F00021704721FA02F36B
:10076000D040C2F120029140084319467047202A28
:1007700006DBCB17203A41FA02F043EAE07306E0C9
:1007800041FA02F3D040C2F12002914008431946D9
:1007900070470029A8BF7047401C490008BF20F0DF
:1007A0000100704710B4B0FA80FC00FA0CF050EA77
:1007B000010404BF10BC704749B1CCF1200421FAF8
:1007C00004F411FA0CF118BF012121430843A3EBF3
:1007D0000C01CB1D4FEA00614FEA102042BF002000
:1007E00010BC704700EBC35010440029A4BF10BCDC
:1007F0007047401C490008BF20F0010010BC704742
:1008000010B5141E73F1000408DA401C41F1000118
:1008100092185B411A4301D120F0010010BD2DE96F
:10082000F04D92469B4611B1B1FA81F202E0B0FA66
:1008300080F220329046FFF77BFF04460F4640EAE5
:100840000A0041EA0B0153465A46084313D01146A9
:1008500053EA010019D0C8F140025046FFF777FF74
:1008600005460E46504659464246FFF761FF08438B
:1008700005D0012004E020463946BDE8F08D002077
:10088000054346EAE0762C4337430A986305E40AB9
:10089000A0EB08000022FD0A44EA47540A3002D5C2
:1008A00000200146E9E7010510196941DDE9084525
:1008B00000196941BDE8F04DA2E770B521F0004391
:1008C00003430CD0C1F30A550024D5EB040564EBB7
:1008D0000403D617AD1AB34102DB0020014670BDF8
:1008E000201841EB025170BD064C074D06E0E06850
:1008F00040F0010394E8070098471034AC42F6D367
:10090000FFF7F8FB68310008883100082DE9F04D49
:1009100000231A461B1A8A4103DB00200146BDE86A
:10092000F08DC1F30A52C1F3130141F480154FF069
:10093000000BD10702D100186D41521E002704465A
:1009400040F2FF11384601EB620A3E4680460246FD
:1009500000204FF48011FFF7FAFEC2197141BB1855
:1009600046EB0100B4EB030C75EB000C04D3E41A66
:1009700065EB000517460E46241908F101006D418C
:1009800080463428E3DDF91946EB0600091BA8412F
:1009900003D24FF0FF32134601E0002213461BEB57
:1009A000070046EB0A51BDE8F04DFFF729BF00BF35
:1009B000FEE7704700B5034603E04FF47A7000F09D
:1009C00011F8181EA3F10103F7D100BD10B50446BC
:1009D00003E04FF47A70FFF7EDFF201EA4F101044D
:1009E000F7D110BD00EBC001C9004FF0E02251610A
:1009F000002191610521116100BF4FF0E0210969DB
:100A000001F480310029F8D004214FF0E022116177
:100A100070472DE9F0410246002500260020002302
:100A20000024002791F803C00CF00F0591F803C0D3
:100A30000CF0100CBCF1000F03D091F802C04CEA8E
:100A4000050591F800C0BCF1000F31D014680020FA
:100A50002BE04FF0010C0CFA00F3B1F800C00CEAE7
:100A600003069E4220D183004FF00F0C0CFA03F7CF
:100A7000BC4305FA03FC4CEA040491F803C0BCF142
:100A8000280F06D14FF0010C0CFA00FCC2F814C07C
:100A90000AE091F803C0BCF1480F05D14FF0010CFA
:100AA0000CFA00FCC2F810C0401C0828D1D3146016
:100AB000B1F800C0BCF1FF0F34DD546800202EE017
:100AC00000F1080C4FF0010808FA0CF3B1F800C06F
:100AD0000CEA03069E4221D183004FF00F0C0CFA62
:100AE00003F7BC4305FA03FC4CEA040491F803C085
:100AF000BCF1280F05D100F1080C08FA0CF8C2F877
:100B0000148091F803C0BCF1480F07D100F1080C24
:100B10004FF0010808FA0CF8C2F81080401C0828B1
:100B2000CED35460BDE8F081F0B50A46002300241E
:100B30000021002500F00046B6F1004F02D11D4E05
:100B4000F16901E01B4E7168C0F3034583B200F404
:100B50004016B6F5401F08D121F07061154E766839
:100B600026F07066134F7E6012E000F48016B6F532
:100B7000801F06D1032606FA05F4A14341F07061F7
:100B800006E0460D360103FA06F6B14341F0706106
:100B900022B1460D360103FA06F6314300F0004655
:100BA000B6F1004F02D1034EF16101E0014E7160D8
:100BB000F0BD0000000001400246002093680B4099
:100BC0000BB1012000E000207047416170470161D6
:100BD00070470AB1016100E04161704700BFFEE764
:100BE00010B5054801F00BFB04B20021024801F0EA
:100BF000E7FC204610BD0000000400402DE9F0474E
:100C000004463B2000F058F8A0F5FA794846FFF773
:100C1000FBFC07460022254BFFF77EFC054601F052
:100C2000CBFFC4E900013D2000F046F8A0F17809AF
:100C30004846FFF7E9FC074600221C4BFFF76CFC17
:100C4000054601F0B9FFC4E902013F2000F034F885
:100C5000A0F58049A9F110094846FFF7D5FC0746E1
:100C60000022124BFFF758FC054601F0A5FFC4E92E
:100C700004010F4A0F4BD4E900512846FFF7DAFB75
:100C8000C4E900010A4A0B4BD4E902512846FFF798
:100C9000D1FBC4E90201064A064BD4E904512846B7
:100CA000FFF7C8FBC4E90401BDE8F0870000D040AD
:100CB000A79196CADBA54C402DE9F0410446204699
:100CC00000F023F80546611CC8B200F01EF8064685
:100CD00046EA052738B2BDE8F08110B502F0AAF85F
:100CE00000216B2000F07EF80721192000F07AF82F
:100CF00006211A2000F076F818211B2000F072F867
:100D000001211C2000F06EF810BD70B5044602F001
:100D1000C9F8D02002F0ADF902F0A8F8204602F0A0
:100D2000A8F902F0A3F802F0BDF8D12002F0A1F971
:100D300002F09CF802F082F90546012002F0A6F8C4
:100D400002F0BEF8284670BD70B500241E48FFF7BB
:100D500055FF1D4800221D4BD0E900512846FFF7E2
:100D6000CFFC09D818480022194BD0E90051284679
:100D7000FFF7AEFC00D801241349D1E9005100224D
:100D8000144B2846FFF7A4FC09D80F480022124B49
:100D9000D0E900512846FFF7B3FC00D802240A48E6
:100DA00000220E4BD0E900512846FFF791FC09D8EC
:100DB0000549D1E900510022094B2846FFF7A0FC64
:100DC00000D80324204670BD9001002000805B40C5
:100DD000000060400080524000804E4000C05740FC
:100DE0000080564070B505460C4602F05BF8D020F6
:100DF00002F03FF902F03AF8284602F03AF902F020
:100E000035F8204602F035F902F030F802F058F8D3
:100E100070BD00BFFEE7704770B5002100230F22B0
:100E2000C47804B3154C246804F4E064C4F5E064A9
:100E3000210AC1F10403CA40447804FA03F184781A
:100E40001440214309010E4C0678A155047804F0A2
:100E50001F050124AC4005786D11AD0005F1E025BA
:100E6000C5F8004109E0047804F01F050124AC40F6
:100E7000044D0678761145F8264070BD0CED00E073
:100E800000E400E080E100E002490143024A116011
:100E9000704700000000FA050CED00E010B50446B4
:100EA0003E2C6BD00EDC0F2C3BD006DC012C56D038
:100EB000032C4AD0072C66D142E01E2C27D03C2CB4
:100EC00061D10EE0C02C45D006DC782C24D07C2CDF
:100ED0004FD0802C57D147E0E02C2CD0F02C52D1B1
:100EE00024E02A480078012803D10A21084600F0AE
:100EF00085FD26480078022804D10821084600F024
:100F00007DFD03E01921084600F078FD3BE010214B
:100F1000142000F073FD36E01421102000F06EFD67
:100F200031E00D21132000F069FD2CE013210D208C
:100F300000F064FD27E013210A2000F05FFD22E0AD
:100F40000A21132000F05AFD1DE00721122000F0B5
:100F500055FD18E01221072000F050FD13E0042198
:100F60001E2000F04BFD0EE01E21042000F046FD87
:100F700009E013210D2000F041FD04E00D211320B4
:100F800000F03CFD00BF00BF10BD0000AE0000201F
:100F9000FF280AD10A49097839B90121084A117094
:100FA00008490978491C074A1170FF2806D00449EE
:100FB0000978012902D10021014A1170704700000F
:100FC000AD000020AC00002010B500249648007849
:100FD00001284BD19548007840B900209449087009
:100FE000944908701921084600F008FDFFF7ACFE8F
:100FF0000446012C06D1C1038F48FFF7E6FD01200E
:101000008E4908708D48007801280BD1032C09D136
:10101000C1038948FFF7DBFD0120894908700020E2
:10102000864908708648007801280BD1022C09D126
:10103000C1038148FFF7C9FD0120824908700020E3
:101040007F4908707F48007801280FD1032C0DD10B
:10105000C1037948FFF7BBFD00207A4908700120E1
:101060007349087071490870724908706E480078B9
:1010700002287DD17448007810B900206C490870AE
:10108000FFF762FE0446012C21D170480078F0B9C8
:10109000E1036948FFF799FD0B21084600F0AEFC1B
:1010A00050220021084600F055F950220021084640
:1010B00000F050F950220021084600F04BF90220C0
:1010C0006349087001206149087062490870032C67
:1010D0000DD160480078012809D1C1035648FFF7B7
:1010E00076FD00205B49087001205B490870012CE7
:1010F0000DD159480078012809D1C1034E48FFF7A6
:1011000064FD002054490870012054490870534878
:101110000078012814D1032C12D1C1034648FFF7EF
:1011200056FD0221084600F069FC3C220021012006
:1011300000F010F901204A49087000204749087062
:101140004748007801280BD1022C09D1C1033A4845
:10115000FFF73BFD0120434908700020404908701B
:1011600040480078012814D1032C12D1C10300E0BB
:1011700047E03148FFF72BFD0121084600F03EFC17
:101180000220334908700120374908700020354992
:10119000087035480078012812D1022C10D1C10303
:1011A0002548FFF712FD02202949087001202F4928
:1011B000087000202C4908700121084600F01EFC30
:1011C0002A48007801281CD1032C1AD1C1031A48DF
:1011D000FFF7FDFC0120164908701B490870FFF756
:1011E000F5FB03201A4908700020204908705A2294
:1011F0000021012000F0AEF8AA220021084600F0EC
:10120000A9F80948007803280DD102201049087078
:101210000821084600F0F2FB0121154801F0C0FA50
:1012200004200149087010BDAC000020B700002068
:10123000C0000020C2000020000C0140B4000020CB
:10124000B5000020B6000020BB000020BA0000203E
:10125000AE000020B9000020B8000020AF00002040
:10126000B0000020B1000020B2000020B300002038
:101270000038014010B5AA220021084600F06AF8A3
:10128000AA220021084600F065F8AA22002108469B
:1012900000F060F84FF4FA70FFF78CFB3C2200215D
:1012A000084600F057F83C220021084600F052F8AA
:1012B0000220FFF78BFB5A220021012000F04AF8A0
:1012C0005A220021012000F045F84FF4FA70FFF790
:1012D00071FBB4220021012000F03CF8B42200216F
:1012E000012000F037F8B4220021012000F032F88C
:1012F0000120FFF76BFB5A220021012000F02AF8A1
:10130000AA220021084600F025F810BD70B5044659
:101310000D4601F0E1FD0021084600F004F82046EA
:1013200000F03EF870BD70B505460C4601F000FEB9
:10133000802001F0B4FE01F0EBFD284601F0AFFE85
:1013400001F0E6FD204601F0AAFE01F0E1FD01F00A
:10135000FDFD70BD2DE9F74F82B083469246002017
:1013600001905046FFF761F980460A4A0A4BFFF7A1
:1013700061F806460022094BFEF7B5FF0446FFF769
:101380008EF901905846019A039900F04DF805B086
:10139000BDE8F08F3D0AD7A3703D02400080594060
:1013A0002DE9F04104461E492046FEF72CFF044675
:1013B0001C4E4FF08B413046FEF757FF0646214644
:1013C0003046FEF752FF06464FF07E513046FEF79C
:1013D00014FF06464FF07C513046FEF7BCFE074630
:1013E000FFF749F9C5B210210020FFF79CFF02204A
:1013F000FFF7E0FA2946FE20FFF795FF0021084697
:10140000FFF791FF0220FFF7D5FAA0210020FFF798
:101410008AFF4FF4FA70FFF7CDFABDE8F0810000C3
:101420003333733F20BCBE4B70B506460C461546A1
:1014300001F07EFD802001F032FE01F069FDB10077
:10144000891DC8B201F02BFE01F062FDE0B201F08F
:1014500026FE01F05DFDC4F3072001F020FE01F03F
:1014600057FDE8B201F01BFE01F052FDC5F3072065
:1014700001F015FE01F04CFD01F068FD70BD0000AB
:101480002DE9F05F04460D46601B00B23649088026
:10149000B1F90010354AB2F900201144344AB2F9CA
:1014A0000020022303FB1210FFF7A5F88146314804
:1014B00001684846FEF7A7FE07462B48B0F9000032
:1014C000FFF799F883462C4801685846FEF79BFEC3
:1014D00081462549B1F90010254AB2F90020881A41
:1014E000FFF789F88346254801685846FEF78BFECA
:1014F00082464946FEF72FFE80463946FEF72BFE10
:101500000646FFF79FF800B21D4908801D48008875
:101510000988084400B21B4908800846B0F9000059
:10152000002801DA002008801648B0F9000064287D
:1015300002DD6420134908801248008881B21248F5
:1015400001F039F80F48008881B20F4801F035F8F2
:101550000748B0F90000054908800348B0F90000C9
:1015600003490880BDE8F09F960000209A00002003
:1015700098000020900000208C00002088000020AF
:101580009C0000209E000020002C01402DE9F05F0F
:1015900004460D46601B00B236490880B1F90010C0
:1015A000354AB2F900201144344AB2F9002002232E
:1015B00003FB1210FFF71FF88146314801684846C7
:1015C000FEF721FE07462B48B0F90000FFF713F89D
:1015D00083462C4801685846FEF715FE814625498A
:1015E000B1F90010254AB2F90020881AFFF703F874
:1015F0008346254801685846FEF705FE824649465F
:10160000FEF7A9FD80463946FEF7A5FD0646FFF721
:1016100019F800B21D4908801D480088098808444F
:1016200000B21B4908800846B0F90000002801DA22
:10163000002008801648B0F90000642802DD64200C
:10164000134908801248008881B2124800F0AFFFA9
:101650000F48008881B20F4800F0ABFF0748B0F98F
:101660000000054908800348B0F9000003490880DC
:10167000BDE8F09FA2000020A6000020A4000020EA
:10168000900000208C00002088000020A80000208E
:10169000AA000020002C01407047000029B1064A32
:1016A000D2690243044BDA6104E0034AD2698243FF
:1016B000014BDA61704700000010024029B1064A70
:1016C00092690243044B9A6104E0034A926982439F
:1016D000014B9A61704700000010024030B50021B4
:1016E0000022002400232D4D6D6805F00C0121B16E
:1016F000042905D0082923D105E0294D056022E001
:10170000274D05601FE0254D6D6805F47012234DCF
:101710006D6805F48034022505EB92421CB9214D19
:10172000554305600BE01D4D6D6805F400351DB196
:101730001C4D5543056002E0194D5543056002E01C
:10174000174D056000BF00BF144D6D6805F0F00136
:101750000909154D6B5C0568DD4045600F4D6D68EE
:1017600005F4E061090A104D6B5C4568DD40856059
:101770000A4D6D6805F46051C90A0B4D6B5C4568F4
:10178000DD40C560054D6D6805F44041890B074D8E
:101790006B5CC568B5FBF3F5056130BD0010024018
:1017A00000127A0000093D00000000201000002017
:1017B00010B54FF0804000F022FD04B200214FF040
:1017C000804000F0FDFE204610BD000010B504462C
:1017D00022464FF400510348FFF7FBF90A20FFF7B8
:1017E00001F910BD000C014010B5044622464FF42B
:1017F00080710348FFF7EDF90A20FFF7F3F810BDF9
:10180000000C014010B54FF480510448FFF7D4F9A3
:1018100004460A20FFF7E6F8204610BD000C014000
:1018200010B5044622464FF480510348FFF7D1F922
:101830000A20FFF7D7F810BD000C014010B54FF497
:1018400000710448FFF7B8F904460A20FFF7CAF808
:10185000204610BD000C014010B5044622464FF44E
:1018600000710348FFF7B5F90A20FFF7BBF810BD78
:10187000000C01407047000008B501211C20FFF753
:101880001DFF10208DF80300C002ADF800000320FA
:101890008DF8020069460448FFF7BBF84FF4004199
:1018A0000148FFF794F908BD000C014010B500F0A5
:1018B00001F810BD0CB5002001900090334800687D
:1018C00040F480303149086000BF3048006800F4BF
:1018D000003000900198401C0190009818B90198C0
:1018E000B0F5A06FF1D12948006800F4003010B1C4
:1018F0000120009001E0002000900098012843D1D1
:101900002348006840F0100021490860084600683C
:1019100020F0030008600846006840F002000860FC
:101920001A484068194948600846406848600846B7
:10193000406840F4806048600846406820F47C10AD
:1019400048600846406840F4E8104860084600686F
:1019500040F08070086000BF0C48006800F0007024
:101960000028F9D00948406820F003000749486082
:101970000846406840F00200486000BF03484068E5
:1019800000F00C000828F9D10CBD00000010024046
:101990000020024010B540F221410848FFF717F936
:1019A00008210748FFF713F940F602010348FFF743
:1019B0000CF918210348FFF708F910BD000C01408D
:1019C000000801400010014010B50021084600F059
:1019D00015F840F623410648FFF7F7F818210548A7
:1019E000FFF7F3F808210448FFF7EFF810BD0000F7
:1019F000000C01400010014000080140024A108024
:101A0000024A118070470000BC000020BE00002088
:101A10007047000010B51348006840F001001149FC
:101A2000086008464068104908400E49486008466A
:101A300000680E4908400B4908600846006820F419
:101A4000802008600846406820F4FE0048604FF49B
:101A50001F008860FFF72AFF4FF00060044908600C
:101A600010BD0000001002400000FFF8FFFFF6FE6E
:101A700008ED00E008B501211C20FFF71FFE102033
:101A80008DF803000820ADF8000003208DF8020057
:101A900069461648FEF7BDFF10208DF8030040F69A
:101AA0002340ADF8000003208DF80200694610487D
:101AB000FEF7AFFF10208DF803001820ADF80000EE
:101AC00003208DF8020069460A48FEF7A2FF0821AC
:101AD0000648FFF77CF840F623410548FFF777F802
:101AE00018210448FFF773F808BD00000008014002
:101AF000000C014000100140F0B50C4615460022D4
:101B00000021068C4FF6FE773E400684028B018C46
:101B10004FF60C7632407E1C06EA03162E43324303
:101B2000104EB0420ED0104EB0420BD0B0F1804FEC
:101B300008D00E4EB04205D00D4EB04202D00D4E30
:101B4000B04206D14FF6FD76314044F001063143F4
:101B500005E04FF6F576314044F00106314302834B
:101B60000184F0BD002C014000340140000400401D
:101B700000080040000C0040F0B50C46154600225D
:101B800000210026078C4FF6EF7C07EA0C0707843C
:101B9000028B018C4FF6FF7707EA041640F6FF47E9
:101BA0003A404FF6FF7707EA03373A434FF6FF779D
:101BB00007EA05273A43114FB8420ED0104FB842FA
:101BC0000BD0B0F1804F08D00E4FB84205D00E4F69
:101BD000B84202D00D4FB84206D14FF6DF773940F8
:101BE00046F01007394305E04FF65F77394044F07F
:101BF0001007394302830184F0BD0000002C01402E
:101C0000003401400004004000080040000C004087
:101C1000F0B50C461546002200210026078C4FF631
:101C2000FF6C07EA0C070784828B018C4FF6FF7765
:101C300007EA04264FF60C773A404FF6FF7707EA9B
:101C400003172F433A43114FB8420ED0104FB842FA
:101C50000BD0B0F1804F08D00E4FB84205D00E4FD8
:101C6000B84202D00D4FB84206D14FF6FF57394067
:101C700046F48077394305E04FF2FF57394044F48A
:101C80008077394382830184F0BD0000002C01403D
:101C9000003401400004004000080040000C0040F7
:101CA000F0B50C461546002200210026078C4EF6A2
:101CB000FF7C07EA0C070784828B018C4FF6FF77C5
:101CC00007EA043640F6FF473A404FF6FF7707EA47
:101CD00005273A434FF6FF7707EA03373A43114F98
:101CE000B8420ED0104FB8420BD0B0F1804F08D0A0
:101CF0000E4FB84205D00E4FB84202D00D4FB84239
:101D000006D14DF6FF77394046F48057394305E058
:101D100047F6FF57394044F48057394382830184A2
:101D2000F0BD0000002C01400034014000040040E0
:101D300000080040000C004000B589B00121C80235
:101D4000FFF7BCFC01210420FFF7B8FC0121084685
:101D5000FFF7B4FC18208DF823004FF47060ADF845
:101D6000200003208DF8220008A93248FEF751FE1A
:101D70000020ADF81A00ADF816006320ADF8180089
:101D80004720ADF8140000208DF81C0005A92A4852
:101D900000F044FC0020ADF80A00ADF81000ADF8EA
:101DA00012006020ADF804000020ADF80C00ADF882
:101DB0000E000120ADF806000420ADF8080001A9CE
:101DC0001D4800F099FA01A91B4800F0EBFA01A99F
:101DD000194800F047FB01A9174800F09DFB0821B6
:101DE000154800F0D5FA0821134800F02DFB082112
:101DF000114800F087FB08210F4800F0CBFB0121C0
:101E00000D4800F0CCF901210B4800F0BCF932215B
:101E1000094800F0CCFB3221074800F0CAFB322110
:101E2000054800F0C8FB3221034800F0C6FB09B0AA
:101E300000BD000000080140002C014000B587B043
:101E400001210846FFF72AFC01210420FFF736FC98
:101E500004208DF81B000320ADF818008DF81A003F
:101E600006A91C48FEF7D5FD0020ADF81200ADF81C
:101E70000E004FF6FF70ADF810000020ADF80C001A
:101E800003A94FF0804000F0C9FB684600F022FA39
:101E90000020ADF800000F20ADF8080069464FF0B3
:101EA000804000F0C1F90420ADF800000F20ADF82B
:101EB000080069464FF0804000F0B6F90A231A4640
:101EC0000321580700F07AF90121880700F05BF937
:101ED00007B000BD0008014000B587B00121022015
:101EE000FFF7DCFB01210420FFF7E8FB04208DF85D
:101EF0001B00C020ADF8180003208DF81A0006A9B9
:101F00001B48FEF786FD0020ADF81200ADF80E006C
:101F10004FF6FF70ADF810000020ADF80C0003A9DB
:101F2000144800F07BFB684600F0D4F90020ADF8BF
:101F300000000F20ADF8080069460E4800F074F963
:101F40000420ADF800000F20ADF8080069464FF0FE
:101F5000804000F069F90A231A460321054800F081
:101F60002DF90121034800F00EF907B000BD000073
:101F7000000801400004004070B500240025012144
:101F8000564800F03FF900286ED0FEF729FE0446BF
:101F9000FFF70EFC054629465148B0F90000FFF74F
:101FA000F5FA21464F48B0F90000FFF769FA4E48AC
:101FB000007818B14C48007802285AD14B48407834
:101FC000302856D049484178494802880088401C4A
:101FD000474B18804748815418460088142826D15A
:101FE0004148007818BB002042491A46128888549C
:101FF00041494048FEF798F848B140493D48FEF74E
:1020000093F820B13E493B48FEF78EF850B90020C6
:102010003749088001203449087036493948FEF7AD
:1020200091F804E0002030490870314908803048B8
:10203000008814284CD12C480078022848D1002070
:102040002C492B4A128888542E492A48FEF76CF8EE
:1020500058B90020264908802B48007820B9FFF79E
:10206000B3FC01202949087032E000202049088093
:102070002EE01D480078012825D11C4840783028E2
:1020800021D11A484178224802880088401C204B00
:1020900018802048815418460088142818D100213F
:1020A0001C481A46128881541B49FEF73DF830B986
:1020B00000201749088002200B49087008E0002022
:1020C0001349088004E0002009490880104908806D
:1020D0000121024800F054F870BD000000080040E3
:1020E000BE000020BC000020810000202C01002048
:1020F00014000020C800002018000020420000202A
:102100002D0000206C000020C10000208200002073
:1021100016000020FA000020570000207FB5054679
:102120000C4601210420FFF7B9FA0020ADF80A009F
:10213000ADF80600681E80B2ADF80800601E80B2DF
:10214000ADF8040001A90D4800F068FA012211461B
:102150000A4800F0C8F81E208DF8000001208DF814
:1021600003008DF8010000208DF802006846FEF79C
:1021700053FE0121014800F006F87FBD0008004031
:10218000CA430282704721B1028842F001020280F4
:1021900004E002884FF6FE731A400280704731B1A6
:1021A000B0F8442042F40042A0F8442005E0B0F822
:1021B0004420C2F30E02A0F844207047F0B50C464C
:1021C00015461E460021002200230189028B038C44
:1021D0004FF6F877394021434FF6FC473A4040F23A
:1021E00001173A434FF6DD773B404FF6FF7707EA9A
:1021F00006172F433B43018102830384F0BD014650
:10220000888C704730B50246002000230024158AD0
:1022100005EA0103958905EA010413B10CB1012017
:1022200000E0002030BD000070B505460C46244893
:1022300085420ED0234885420BD0B5F1804F08D09F
:102240002148854205D02148854202D02048854258
:1022500000D100E000BF208850B92389A28861889E
:102260002846FFF749FCE188284600F0ABF925E055
:10227000208804280AD12389A28861882846FFF78C
:102280007BFCE188284600F0A6F917E020880828A2
:102290000AD12389A28861882846FFF7B9FCE18822
:1022A000284600F0A5F909E02389A288618828461C
:1022B000FFF7F6FCE188284600F0A3F970BD0000A6
:1022C000002C0140003401400004004000080040A0
:1022D000000C00400021018041800121818000210B
:1022E000C180018170471AB183890B43838102E069
:1022F00083898B438381704770B5002400220023BB
:10230000058C4FF6FE7635400584028C8388048B5D
:102310004FF68F752C40B51E2C400D882C43751E32
:102320002A400D892A434D882A43144DA8420BD0D8
:10233000134DA84208D0134DA84205D0124DA84213
:1023400002D0124DA84213D14FF6F7752A404D899D
:102350002A434FF6FB752A408D882A434FF6FF65C6
:102360002B404FF6FF552B408D892B43CD892B43B6
:1023700083800483CD888586028470BD002C014053
:102380000034014000400140004401400048014049
:102390000A460021018B4FF6F77319401143018360
:1023A0007047000070B5002400220023058C4FF612
:1023B000EF7635400584028C8388048B48F6FF75E0
:1023C0002C404FF6FF452C400D884FF6FF7606EA6D
:1023D00005252C434FF6DF752A400D8906EA0515C1
:1023E0002A434D8806EA05152A43154DA84202D016
:1023F000144DA8421DD14FF67F752A404D894FF6E6
:10240000FF7606EA05152A434FF6BF752A408D88E8
:1024100006EA05152A434FF6FF352B404FF2FF75AC
:102420002B408D8906EA85052B43CD8906EA850573
:102430002B4383800483CD880587028470BD000010
:10244000002C0140003401400A460021018B4FF26C
:10245000FF7319404FF6FF7303EA02231943018308
:102460007047000070B5002400220023058C4FF651
:10247000FF6635400584028C8388848B4FF68F7508
:102480002C404FF6FC752C400D882C434FF6FF5521
:102490002A400D894FF6FF7606EA05252A434D8826
:1024A00006EA05252A43154DA84202D0144DA8423C
:1024B0001DD14FF2FF752A404D894FF6FF7606EA8F
:1024C00005252A434FF6FF352A408D8806EA052563
:1024D0002A434EF6FF752B404DF6FF752B408D8934
:1024E00006EA05152B43CD8906EA05152B438380A3
:1024F0008483CD888587028470BD0000002C014054
:10250000003401400A460021818B4FF6F7731940D1
:10251000114381837047000070B50022002300241E
:10252000058C4EF6FF7635400584038C8488828BBB
:1025300048F6FF752A404FF6FF452A400D884FF6B2
:10254000FF7606EA05252A434DF6FF752B400D89D7
:1025500006EA05352B434D8806EA05352B430B4D1E
:10256000A84202D00A4DA84208D14BF6FF752C4074
:102570008D894FF6FF7606EA85152C438480828389
:10258000CD88A0F84050038470BD0000002C0140AD
:10259000003401400A460021818B4FF2FF7319403D
:1025A0004FF6FF7303EA0223194381837047818644
:1025B00070470187704781877047A0F840107047C7
:1025C00081847047028B4FF6F3731A400283028BAB
:1025D0000A4302837047028B4FF2FF331A40028393
:1025E000028B4FF6FF7303EA01231A4302837047FD
:1025F000828B4FF6F3731A408283828B0A43828365
:102600007047828B4FF2FF331A408283828B4FF6E2
:10261000FF7303EA01231A43828370470022028872
:102620001D4B98420ED01D4B98420BD0B0F1804FFD
:1026300008D01B4B984205D01A4B984202D01A4B37
:10264000984204D14FF68F731A404B881A43174BA8
:10265000984207D0164B984204D04FF6FF431A40D9
:10266000CB881A4302808B8883850B8803850A4BAD
:1026700098420BD0094B984208D00E4B984205D097
:102680000D4B984202D00D4B984201D10B7A038634
:102690000123838270470000002C01400034014078
:1026A0000004004000080040000C00400010004002
:1026B0000014004000400140004401400048014037
:1026C00010B540F22551114800F076F8C8B140F23B
:1026D00025510E4800F055F80C4800F029F90A2859
:1026E00003D100200A4908700BE0084800F020F9E7
:1026F000C1B2074802780078401C054B18700548A5
:1027000081542021014800F033F810BD0038014009
:10271000830000202C01002010B540F22551114803
:1027200000F04AF8C8B140F225510E4800F029F8EF
:102730000C4800F0FDF8A52803D100200A490870D4
:102740000BE0084800F0F4F8C1B2074802780078BE
:10275000401C054B1870054881542021014800F0A9
:1027600007F810BD00480040840000205E010020F2
:1027700001F40072B2F5007F00D100BFCA430280AD
:10278000704710B50022002340F66A14A14200D120
:1027900000BF0A1201249440A3B2DC43048010BDA0
:1027A00021B1828942F40052828104E082894DF68F
:1027B000FF731A408281704770B5024600240023DF
:1027C0000025002040F66A16B14200D100BFC1F3D7
:1027D000421501F01F03012606FA03F3012D02D171
:1027E0009689334006E0022D02D1168A334001E07B
:1027F000968A33400C12012606FA04F416883440F7
:1028000013B10CB1012000E0002070BDF0B503460B
:10281000002400260025002040F66A17B94200D1A6
:1028200000BF1846C1F3421401F01F06012707FA42
:1028300006F5012C01D10C3004E0022C01D110303E
:1028400000E014301AB107682F43076002E0076800
:10285000AF430760F0BD00002DE9F04786B00546A4
:102860000E460024A24600BFA1460027B08900B151
:1028700000BF2F462C8A4CF6FF700440F0880443BA
:102880002C82AC894EF6F3100440B088318908439D
:10289000718908430443AC81AC8A4FF6FF40044081
:1028A000B0890443AC8201A8FEF718FF1F48874295
:1028B00002D1DDF810A001E0DDF80CA0A88900F439
:1028C000004040B10AEBCA0000EB0A103168490031
:1028D000B0FBF1F807E00AEBCA0000EB0A10316820
:1028E0008900B0FBF1F86420B8FBF0F00401200986
:1028F000642101FB1089A88900F4004040B1322016
:1029000000EBC900B0FBF1F000F00700044308E061
:10291000322000EB09106421B0FBF1F000F00F0051
:1029200004432C8106B0BDE8F08700000038014068
:1029300001468888C0F30800704700BFFEE700002A
:1029400000B587B001210820FEF7B8FE01218803F9
:10295000FEF7B4FE01210846FEF7B0FE0121042077
:10296000FEF7E2F818208DF81B004020ADF81800A3
:1029700003208DF81A0006A92048FEF74AF8042023
:102980008DF81B008020ADF8180003208DF81A0088
:1029900006A91A48FEF73DF84FF4E13002900020F6
:1029A000ADF814000C20ADF812000020ADF81000B6
:1029B000ADF80E00ADF80C0002A91148FFF74CFF6E
:1029C000012240F225510E48FFF720FF4FF4A0608E
:1029D000FEF75AFA25208DF8040001208DF8070033
:1029E0008DF805008DF8060001A8FEF715FA002104
:1029F0000348FFF7D5FE07B000BD0000000C014002
:102A00000038014000B587B001211020FEF756FEC6
:102A100001218804FEF742FE01210846FEF74EFE22
:102A200001212848FEF780F818208DF81B004FF48C
:102A30008060ADF8180003208DF81A0006A922481E
:102A4000FDF7E7FF04208DF81B004002ADF81800E9
:102A500003208DF81A0006A91B48FDF7DAFF4FF492
:102A6000E13002900020ADF814000C20ADF8120007
:102A70000020ADF81000ADF80E00ADF80C0002A972
:102A80001248FFF7E9FE012240F225510F48FFF7F7
:102A9000BDFE4FF4A060FEF7F7F927208DF8040083
:102AA00001208DF807008DF8050000208DF8060044
:102AB00001A8FEF7B1F901210448FFF771FE07B044
:102AC00000BD00001000140000100140004800404C
:102AD0002DE9F0414F1E00EBC7010446D1E900018A
:102AE00015461E4637F006020DD02A463346FDF73E
:102AF000A1FC7F1E04EBC703D3E90023FDF7F3FB22
:102B000037F00602F1D1022F25D0042F13D0062F63
:102B100018BFBDE8F0812A463346FDF78BFCD4E9A7
:102B20000A23FDF7E0FB2A463346FDF783FCD4E990
:102B30000823FDF7D8FB2A463346FDF77BFCD4E992
:102B40000623FDF7D0FB2A463346FDF773FCD4E994
:102B50000423FDF7C8FB2A463346FDF76BFCD4E996
:102B60000223FDF7C0FB2A463346FDF763FCD4E998
:102B70000023BDE8F041FDF7B6BB0122FDF79DBE85
:102B80000022134610461146FDF7C6BC02E008C8F5
:102B9000121F08C1002AFAD170477047002001E0D7
:102BA00001C1121F002AFBD17047000001490860D3
:102BB00070470000C40000202DE9F04D0546DFF805
:102BC000388221F000408D4F82B00C46404520DB1A
:102BD000A0EB080129430BD08949884201DC10D1C0
:102BE0007DB102B028462146BDE8F04DFFF7C5BFD4
:102BF000002CC7BF002001468248394602B0BDE81C
:102C0000F08D0120FFF7D2FF02B0BDE8F04DFFF7D5
:102C1000B7BF7D49884244DA7C498142A1BF7948E7
:102C20007B4902B0BDE8F08D2A462346104619467E
:102C3000FDF700FC8346024676480E460B46062109
:102C40007844FFF745FF5A463346FDF7F3FB074646
:102C500071488A465A46334604217844FFF738FFC4
:102C60005A463346FDF7E6FB00224346FDF73BFBA1
:102C700002460B4638465146FDF74EFC2A4623468F
:102C8000FDF7D8FB654A664BFDF7D1FB2A46234684
:102C9000FDF7CDFB02B05B4ABDE8F04D5C4BFDF7A4
:102CA000C6BB002C4FF000024BDA4646434628468E
:102CB0002146FDF718FB4FF0FF32FDF7FEFD0446FD
:102CC000024658480D460B4606217844FFF700FFA0
:102CD00022462B46FDF7AEFB804653488A462246E5
:102CE0002B4604217844FFF7F3FE22462B46FDF7DE
:102CF000A1FB00223346FDF7F6FA06468B46204636
:102D0000294600F0E2F904460D4632465B4640464D
:102D10005146FDF701FC22462B46FDF78BFB3F4A4F
:102D20003F4BFDF781FB22462B46FDF7DCFA0122E3
:102D3000FDF7C3FD02B03B46BDE8F04D314AFDF75B
:102D400076BB2D4B28462146FDF771FB4FF0FF3235
:102D5000FDF7B3FD05460E4600F0B7F900270C4617
:102D600080463A460B46FDF7BEFA82468B463A4607
:102D7000234610461946FDF75DFB2A463346FDF70C
:102D800056FB52465B46FDF7C7FB824627488B46FB
:102D90002A46334606217844FFF79AFE2A463346F0
:102DA000FDF748FBCDE9000121482A4633460421BE
:102DB0007844FFF78DFE2A463346FDF73BFB0022A1
:102DC0000D4BFDF790FA02460B46DDE90001FDF7D9
:102DD000A3FB42462346FDF72DFB52465B46FDF71B
:102DE00082FA3A462346FDF77EFA02B00122BDE898
:102DF000F04DFDF762BD00000000F03FFB210940EF
:102E00000000F07F182D44540000E03F0000603CBB
:102E1000FB21F93FD4040000EA040000075C1433EE
:102E200026A6913C4A040000600400007E030000D6
:102E30009403000008B501210820FEF73FFC142090
:102E40008DF803004FF44050ADF8000002208DF8DB
:102E5000020069460448FDF7DCFD4FF4405102488A
:102E6000FDF7B5FE08BD0000000C014010B50024C0
:102E70000120FEF7D5FC0120FEF7A8FCFEF7C2FCFE
:102E800004460020FEF7A2FC204610BD10B5044603
:102E90002046FEF7C5FC0120FEF798FC0020FEF757
:102EA00095FC10BD10B50120FEF790FC0120FEF747
:102EB000B7FC0020FEF7B4FC0020FEF787FC10BD35
:102EC00010B50020FEF7ACFC0120FEF77FFC0120CE
:102ED000FEF7A6FC10BD000008B501210820FEF792
:102EE000EDFB14208DF803004FF44070ADF80000A6
:102EF00002208DF8020069460448FDF78AFD4FF470
:102F000040710248FDF763FE08BD0000000C01405F
:102F100010B500240120FEF79FFC0120FEF764FCA1
:102F2000FEF78CFC04460020FEF75EFC204610BD38
:102F300010B50120FEF758FC0120FEF78DFC0020A3
:102F4000FEF78AFC0020FEF74FFC10BD10B50020F4
:102F5000FEF782FC0120FEF747FC0120FEF77CFC17
:102F600010BD0000FFF7ECFCFFF74CFDFEF7E4FEA0
:102F7000FEF764FFFEF7B0FF482142F21070FFF742
:102F8000CDF8FEF777FDFEF777FC00212348FEF72A
:102F9000BDF9FDF7A2FEFDF7A0FE4FF4FA70FDF7B4
:102FA00009FDFEF7F7FC19210846FEF727FD4FF44F
:102FB0004870FDF7FFFC30E019480078012803D184
:102FC00018494878FDF7E4FF17480078012803D135
:102FD00014494878FDF762FFFDF7F6FF13480078C3
:102FE00001281AD1FEF746F90120FDF7EFFC002178
:102FF0000F48FFF7D5FB00200C49087001200D4950
:103000000870FEF7C7FC0A210846FEF7F7FC01200E
:10301000FDF7DCFC032008490870CDE700004842BA
:10302000C00000205E010020C200002082000020BD
:1030300000380140C1000020AE00002070B500241F
:1030400000250120FEF7ECFB00BF0EE00120FEF79B
:10305000BDFBFEF7D7FB012802D1802020410543AC
:103060000020FEF7B3FB601CC4B2082CEEDB284640
:1030700070BD70B50446002500BF0DE004F080006F
:10308000FEF7CEFB6006040E0120FEF79FFB00203A
:10309000FEF79CFB681CC5B2082DEFDB70BD70B558
:1030A0000446002500BF0DE004F08000FEF7D4FBCD
:1030B0006006040E0120FEF797FB0020FEF794FB4C
:1030C000681CC5B2082DEFDB70BD2DE9F041064646
:1030D0000F46FDF71BFC041E0D4618BF01202843B8
:1030E00020F00040C0F17F6000F1E040C00F0ED042
:1030F000301C18BF0120384320F00040C0F17F6031
:1031000000F1E040C00F04BF0120FFF74FFD204653
:103110002946BDE8F0810000555555555555C53F28
:103120007D6FEB0312D6D4BF5544880E55C1C93FFD
:103130003B8F68B52882A4BF88B20175E0EF493F94
:1031400009F7FD0DE13D023F4B2D8A1C273A03C0D4
:10315000C88A599CE52A004059018D1B6C06E6BFC0
:1031600082922EB1C5B8B33F88310008000000201C
:10317000C80000008C2B000850320008C800002056
:10318000E00400009C2B0008000000000102030482
:1031900001020304060708090204060800000000F3
:1031A000313131313131313131313131313131310F
:1031B0003131313100323232323232323232323225
:1031C0003232323232323232320034343434343405
:1031D00034343434343434343434343434340030E7
:1031E00030303030303030303030303030303030DF
:1031F000303030007878787878787878787878789F
:1032000078787878787878780000000000000000FE
:103210000000204100000040CDCC4C3E00000000EA
:10322000000000000000000000000000000000009E
:10323000000000000000000000000000000000008E
:10324000000000000F000F0001000100000000005E
:04000005080000ED02
:00000001FF
